{
  "contractName": "Users",
  "abi": [
    {
      "constant": true,
      "inputs": [],
      "name": "totalUsers",
      "outputs": [
        {
          "name": "",
          "type": "uint256"
        }
      ],
      "payable": false,
      "stateMutability": "view",
      "type": "function",
      "signature": "0xbff1f9e1"
    },
    {
      "constant": false,
      "inputs": [
        {
          "name": "_firstName",
          "type": "string"
        },
        {
          "name": "_lastName",
          "type": "string"
        },
        {
          "name": "_age",
          "type": "uint256"
        },
        {
          "name": "_gender",
          "type": "uint8"
        },
        {
          "name": "_line1",
          "type": "string"
        },
        {
          "name": "_line2",
          "type": "string"
        },
        {
          "name": "_city",
          "type": "string"
        },
        {
          "name": "_state",
          "type": "string"
        },
        {
          "name": "_pincode",
          "type": "string"
        }
      ],
      "name": "createUser",
      "outputs": [],
      "payable": false,
      "stateMutability": "nonpayable",
      "type": "function",
      "signature": "0x72296fca"
    },
    {
      "constant": true,
      "inputs": [
        {
          "name": "id",
          "type": "uint256"
        }
      ],
      "name": "getUserById_BasicDetails",
      "outputs": [
        {
          "name": "",
          "type": "string"
        },
        {
          "name": "",
          "type": "string"
        },
        {
          "name": "",
          "type": "uint256"
        },
        {
          "name": "",
          "type": "uint8"
        }
      ],
      "payable": false,
      "stateMutability": "view",
      "type": "function",
      "signature": "0x449b428a"
    },
    {
      "constant": true,
      "inputs": [
        {
          "name": "id",
          "type": "uint256"
        }
      ],
      "name": "getUserById_Address",
      "outputs": [
        {
          "name": "",
          "type": "string"
        },
        {
          "name": "",
          "type": "string"
        },
        {
          "name": "",
          "type": "string"
        },
        {
          "name": "",
          "type": "string"
        },
        {
          "name": "",
          "type": "string"
        }
      ],
      "payable": false,
      "stateMutability": "view",
      "type": "function",
      "signature": "0x8653a645"
    },
    {
      "constant": true,
      "inputs": [
        {
          "name": "index",
          "type": "address"
        }
      ],
      "name": "getUser",
      "outputs": [
        {
          "name": "",
          "type": "string"
        },
        {
          "name": "",
          "type": "string"
        },
        {
          "name": "",
          "type": "uint256"
        },
        {
          "name": "",
          "type": "address"
        }
      ],
      "payable": false,
      "stateMutability": "view",
      "type": "function",
      "signature": "0x6f77926b"
    },
    {
      "constant": false,
      "inputs": [
        {
          "name": "_firstName",
          "type": "string"
        },
        {
          "name": "_lastName",
          "type": "string"
        },
        {
          "name": "_age",
          "type": "uint256"
        },
        {
          "name": "_gender",
          "type": "uint8"
        },
        {
          "name": "_line1",
          "type": "string"
        },
        {
          "name": "_line2",
          "type": "string"
        },
        {
          "name": "_city",
          "type": "string"
        },
        {
          "name": "_state",
          "type": "string"
        },
        {
          "name": "_pincode",
          "type": "string"
        }
      ],
      "name": "modifyUser",
      "outputs": [],
      "payable": false,
      "stateMutability": "nonpayable",
      "type": "function",
      "signature": "0xf97d491a"
    },
    {
      "constant": false,
      "inputs": [
        {
          "name": "amount",
          "type": "uint256"
        }
      ],
      "name": "withdraw",
      "outputs": [],
      "payable": false,
      "stateMutability": "nonpayable",
      "type": "function",
      "signature": "0x2e1a7d4d"
    },
    {
      "constant": false,
      "inputs": [
        {
          "name": "amount",
          "type": "uint256"
        }
      ],
      "name": "depositSelf",
      "outputs": [],
      "payable": true,
      "stateMutability": "payable",
      "type": "function",
      "signature": "0x96333e52"
    },
    {
      "constant": false,
      "inputs": [
        {
          "name": "to",
          "type": "address"
        },
        {
          "name": "amount",
          "type": "uint256"
        }
      ],
      "name": "depositToOther",
      "outputs": [],
      "payable": true,
      "stateMutability": "payable",
      "type": "function",
      "signature": "0x03295175"
    },
    {
      "constant": true,
      "inputs": [],
      "name": "getBalance",
      "outputs": [
        {
          "name": "",
          "type": "uint256"
        }
      ],
      "payable": false,
      "stateMutability": "view",
      "type": "function",
      "signature": "0x12065fe0"
    }
  ],
  "bytecode": "0x60806040526000805534801561001457600080fd5b50611892806100246000396000f3fe6080604052600436106100a35763ffffffff7c01000000000000000000000000000000000000000000000000000000006000350416630329517581146100a857806312065fe0146100d65780632e1a7d4d146100fd578063449b428a146101275780636f77926b1461024b57806372296fca146102d15780638653a645146106be57806396333e52146108f8578063bff1f9e114610915578063f97d491a1461092a575b600080fd5b6100d4600480360360408110156100be57600080fd5b50600160a060020a038135169060200135610d17565b005b3480156100e257600080fd5b506100eb610dbf565b60408051918252519081900360200190f35b34801561010957600080fd5b506100d46004803603602081101561012057600080fd5b5035610dd6565b34801561013357600080fd5b506101516004803603602081101561014a57600080fd5b5035610e9d565b60405180806020018060200185815260200184600181111561016f57fe5b60ff168152602001838103835287818151815260200191508051906020019080838360005b838110156101ac578181015183820152602001610194565b50505050905090810190601f1680156101d95780820380516001836020036101000a031916815260200191505b50838103825286518152865160209182019188019080838360005b8381101561020c5781810151838201526020016101f4565b50505050905090810190601f1680156102395780820380516001836020036101000a031916815260200191505b50965050505050505060405180910390f35b34801561025757600080fd5b5061027e6004803603602081101561026e57600080fd5b5035600160a060020a0316611007565b60408051908101839052600160a060020a038216606082015260808082528551908201528451819060208083019160a08401918901908083836000838110156101ac578181015183820152602001610194565b3480156102dd57600080fd5b506100d460048036036101208110156102f557600080fd5b81019060208101813564010000000081111561031057600080fd5b82018360208201111561032257600080fd5b8035906020019184600183028401116401000000008311171561034457600080fd5b91908080601f016020809104026020016040519081016040528093929190818152602001838380828437600092019190915250929594936020810193503591505064010000000081111561039757600080fd5b8201836020820111156103a957600080fd5b803590602001918460018302840111640100000000831117156103cb57600080fd5b91908080601f016020809104026020016040519081016040528093929190818152602001838380828437600092019190915250929584359560ff6020870135169591945092506060810191506040013564010000000081111561042d57600080fd5b82018360208201111561043f57600080fd5b8035906020019184600183028401116401000000008311171561046157600080fd5b91908080601f01602080910402602001604051908101604052809392919081815260200183838082843760009201919091525092959493602081019350359150506401000000008111156104b457600080fd5b8201836020820111156104c657600080fd5b803590602001918460018302840111640100000000831117156104e857600080fd5b91908080601f016020809104026020016040519081016040528093929190818152602001838380828437600092019190915250929594936020810193503591505064010000000081111561053b57600080fd5b82018360208201111561054d57600080fd5b8035906020019184600183028401116401000000008311171561056f57600080fd5b91908080601f01602080910402602001604051908101604052809392919081815260200183838082843760009201919091525092959493602081019350359150506401000000008111156105c257600080fd5b8201836020820111156105d457600080fd5b803590602001918460018302840111640100000000831117156105f657600080fd5b91908080601f016020809104026020016040519081016040528093929190818152602001838380828437600092019190915250929594936020810193503591505064010000000081111561064957600080fd5b82018360208201111561065b57600080fd5b8035906020019184600183028401116401000000008311171561067d57600080fd5b91908080601f016020809104026020016040519081016040528093929190818152602001838380828437600092019190915250929550611096945050505050565b3480156106ca57600080fd5b506106e8600480360360208110156106e157600080fd5b503561129f565b60405180806020018060200180602001806020018060200186810386528b818151815260200191508051906020019080838360005b8381101561073557818101518382015260200161071d565b50505050905090810190601f1680156107625780820380516001836020036101000a031916815260200191505b5086810385528a5181528a516020918201918c019080838360005b8381101561079557818101518382015260200161077d565b50505050905090810190601f1680156107c25780820380516001836020036101000a031916815260200191505b5086810384528951815289516020918201918b019080838360005b838110156107f55781810151838201526020016107dd565b50505050905090810190601f1680156108225780820380516001836020036101000a031916815260200191505b5086810383528851815288516020918201918a019080838360005b8381101561085557818101518382015260200161083d565b50505050905090810190601f1680156108825780820380516001836020036101000a031916815260200191505b50868103825287518152875160209182019189019080838360005b838110156108b557818101518382015260200161089d565b50505050905090810190601f1680156108e25780820380516001836020036101000a031916815260200191505b509a505050505050505050505060405180910390f35b6100d46004803603602081101561090e57600080fd5b50356115bc565b34801561092157600080fd5b506100eb611645565b34801561093657600080fd5b506100d4600480360361012081101561094e57600080fd5b81019060208101813564010000000081111561096957600080fd5b82018360208201111561097b57600080fd5b8035906020019184600183028401116401000000008311171561099d57600080fd5b91908080601f01602080910402602001604051908101604052809392919081815260200183838082843760009201919091525092959493602081019350359150506401000000008111156109f057600080fd5b820183602082011115610a0257600080fd5b80359060200191846001830284011164010000000083111715610a2457600080fd5b91908080601f016020809104026020016040519081016040528093929190818152602001838380828437600092019190915250929584359560ff60208701351695919450925060608101915060400135640100000000811115610a8657600080fd5b820183602082011115610a9857600080fd5b80359060200191846001830284011164010000000083111715610aba57600080fd5b91908080601f0160208091040260200160405190810160405280939291908181526020018383808284376000920191909152509295949360208101935035915050640100000000811115610b0d57600080fd5b820183602082011115610b1f57600080fd5b80359060200191846001830284011164010000000083111715610b4157600080fd5b91908080601f0160208091040260200160405190810160405280939291908181526020018383808284376000920191909152509295949360208101935035915050640100000000811115610b9457600080fd5b820183602082011115610ba657600080fd5b80359060200191846001830284011164010000000083111715610bc857600080fd5b91908080601f0160208091040260200160405190810160405280939291908181526020018383808284376000920191909152509295949360208101935035915050640100000000811115610c1b57600080fd5b820183602082011115610c2d57600080fd5b80359060200191846001830284011164010000000083111715610c4f57600080fd5b91908080601f0160208091040260200160405190810160405280939291908181526020018383808284376000920191909152509295949360208101935035915050640100000000811115610ca257600080fd5b820183602082011115610cb457600080fd5b80359060200191846001830284011164010000000083111715610cd657600080fd5b91908080601f01602080910402602001604051908101604052809392919081815260200183838082843760009201919091525092955061164b945050505050565b348114610d8557604080517f08c379a000000000000000000000000000000000000000000000000000000000815260206004820152600f60248201527f496e76616c696420526571756573740000000000000000000000000000000000604482015290519081900360640190fd5b604051600160a060020a038316903480156108fc02916000818181858888f19350505050158015610dba573d6000803e3d6000fd5b505050565b336000908152600160205260409020600401545b90565b33600090815260016020526040902060040154811115610e5757604080517f08c379a000000000000000000000000000000000000000000000000000000000815260206004820152601960248201527f496e737566666963656e742042616c616e63652042726f212100000000000000604482015290519081900360640190fd5b33600081815260016020526040808220600401805485900390555183156108fc0291849190818181858888f19350505050158015610e99573d6000803e3d6000fd5b5050565b600081815260026020818152604080842054600160a060020a031684526001808352818520600381015460058201548284018054865161010096821615969096026000190116889004601f81018890048802860188019096528585526060988998909788979296959091019460ff90931692918691830182828015610f635780601f10610f3857610100808354040283529160200191610f63565b820191906000526020600020905b815481529060010190602001808311610f4657829003601f168201915b5050865460408051602060026001851615610100026000190190941693909304601f810184900484028201840190925281815295995088945092508401905082828015610ff15780601f10610fc657610100808354040283529160200191610ff1565b820191906000526020600020905b815481529060010190602001808311610fd457829003601f168201915b5050505050925093509350935093509193509193565b600160a060020a0380821660009081526001602081815260408084206004810154815482860180548551601f60026000199a841615610100029a909a019092168990049182018890048802810188019096528086526060998a99988998939796019593169291869190830182828015610f635780601f10610f3857610100808354040283529160200191610f63565b33600090815260016020526040902060030154156110b357611294565b600080546001018082558152600260205260409020805473ffffffffffffffffffffffffffffffffffffffff1916331790556110ed61179e565b60a06040519081016040528087815260200186815260200185815260200184815260200183815250905060e06040519081016040528033600160a060020a031681526020018b81526020018a81526020018981526020016000815260200188600181111561115757fe5b81526020908101839052336000908152600180835260409091208351815473ffffffffffffffffffffffffffffffffffffffff1916600160a060020a0390911617815583830151805191936111b1938501929101906117ce565b50604082015180516111cd9160028401916020909101906117ce565b50606082015160038201556080820151600482015560a082015160058201805460ff1916600183818111156111fe57fe5b021790555060c0820151805180516006840191611220918391602001906117ce565b50602082810151805161123992600185019201906117ce565b50604082015180516112559160028401916020909101906117ce565b50606082015180516112719160038401916020909101906117ce565b506080820151805161128d9160048401916020909101906117ce565b5050505050505b505050505050505050565b600081815260026020818152604080842054600160a060020a0316845260018083529381902060068101805483516101009782161597909702600019011694909404601f810184900484028601840190925281855260609485948594859485949293600784019360088101936009820193600a9092019291879183018282801561136a5780601f1061133f5761010080835404028352916020019161136a565b820191906000526020600020905b81548152906001019060200180831161134d57829003601f168201915b5050875460408051602060026001851615610100026000190190941693909304601f8101849004840282018401909252818152959a50899450925084019050828280156113f85780601f106113cd576101008083540402835291602001916113f8565b820191906000526020600020905b8154815290600101906020018083116113db57829003601f168201915b5050865460408051602060026001851615610100026000190190941693909304601f8101849004840282018401909252818152959950889450925084019050828280156114865780601f1061145b57610100808354040283529160200191611486565b820191906000526020600020905b81548152906001019060200180831161146957829003601f168201915b5050855460408051602060026001851615610100026000190190941693909304601f8101849004840282018401909252818152959850879450925084019050828280156115145780601f106114e957610100808354040283529160200191611514565b820191906000526020600020905b8154815290600101906020018083116114f757829003601f168201915b5050845460408051602060026001851615610100026000190190941693909304601f8101849004840282018401909252818152959750869450925084019050828280156115a25780601f10611577576101008083540402835291602001916115a2565b820191906000526020600020905b81548152906001019060200180831161158557829003601f168201915b505050505090509450945094509450945091939590929450565b34811461162a57604080517f08c379a000000000000000000000000000000000000000000000000000000000815260206004820152600f60248201527f496e76616c696420526571756573740000000000000000000000000000000000604482015290519081900360640190fd5b33600090815260016020526040902060040180549091019055565b60005481565b3360009081526001602081815260409092208b51611671939190920191908c01906117ce565b503360009081526001602090815260409091208951611698926002909201918b01906117ce565b50336000908152600160208190526040909120600381018990556005018054889260ff199091169083818111156116cb57fe5b021790555033600090815260016020908152604090912086516116f6926006909201918801906117ce565b50336000908152600160209081526040909120855161171d926007909201918701906117ce565b503360009081526001602090815260409091208451611744926008909201918601906117ce565b50336000908152600160209081526040909120835161176b926009909201918501906117ce565b50336000908152600160209081526040909120825161179292600a909201918401906117ce565b50505050505050505050565b60a06040519081016040528060608152602001606081526020016060815260200160608152602001606081525090565b828054600181600116156101000203166002900490600052602060002090601f016020900481019282601f1061180f57805160ff191683800117855561183c565b8280016001018555821561183c579182015b8281111561183c578251825591602001919060010190611821565b5061184892915061184c565b5090565b610dd391905b80821115611848576000815560010161185256fea165627a7a723058202778c99cad5d87d668a1a8f2a4a1be6835cc1a4f9255a586e957b94a483874250029",
  "source": "pragma solidity ^0.5.0;\r\n\r\ncontract Users {\r\n    uint256 public totalUsers = 0;\r\n\r\n    mapping(address => User) user;\r\n    mapping(uint256 => address) indexToUser;\r\n\r\n    enum Gender {Male, Female}\r\n\r\n    struct Address {\r\n        string line1;\r\n        string line2;\r\n        string city;\r\n        string state;\r\n        string pincode;\r\n    }\r\n\r\n    struct User {\r\n        address id;\r\n        string firstName;\r\n        string lastName;\r\n        uint256 age;\r\n        uint256 amount;\r\n        Gender gender;\r\n        Address adr;\r\n    }\r\n\r\n    //\"Ayush\",\"Rajniwal\",18,0,\"x\",\"y\",\"z\",\"a\",\"b\"\r\n\r\n    function createUser(\r\n        string memory _firstName,\r\n        string memory _lastName,\r\n        uint256 _age,\r\n        Gender _gender,\r\n        string memory _line1,\r\n        string memory _line2,\r\n        string memory _city,\r\n        string memory _state,\r\n        string memory _pincode\r\n    ) public {\r\n        if (user[msg.sender].age != 0) return; //if user already exist then return\r\n        totalUsers++;\r\n\r\n        indexToUser[totalUsers] = msg.sender;\r\n\r\n        Address memory temp = Users.Address(\r\n            _line1,\r\n            _line2,\r\n            _city,\r\n            _state,\r\n            _pincode\r\n        );\r\n        user[msg.sender] = User(\r\n            msg.sender,\r\n            _firstName,\r\n            _lastName,\r\n            _age,\r\n            0, //Inital Amount in a User's Account\r\n            _gender,\r\n            temp\r\n        );\r\n    }\r\n\r\n    function getUserById_BasicDetails(uint256 id)\r\n        public\r\n        view\r\n        returns (\r\n            string memory,\r\n            string memory,\r\n            uint256,\r\n            Gender\r\n        )\r\n    {\r\n        return (\r\n            user[indexToUser[id]].firstName,\r\n            user[indexToUser[id]].lastName,\r\n            user[indexToUser[id]].age,\r\n            user[indexToUser[id]].gender\r\n        );\r\n    }\r\n\r\n    function getUserById_Address(uint256 id)\r\n        public\r\n        view\r\n        returns (\r\n            string memory,\r\n            string memory,\r\n            string memory,\r\n            string memory,\r\n            string memory\r\n        )\r\n    {\r\n        return (\r\n            user[indexToUser[id]].adr.line1,\r\n            user[indexToUser[id]].adr.line2,\r\n            user[indexToUser[id]].adr.city,\r\n            user[indexToUser[id]].adr.state,\r\n            user[indexToUser[id]].adr.pincode\r\n        );\r\n    }\r\n\r\n    function getUser(address index)\r\n        public\r\n        view\r\n        returns (\r\n            string memory,\r\n            string memory,\r\n            uint256,\r\n            address\r\n        )\r\n    {\r\n        return (\r\n            user[index].firstName,\r\n            user[index].lastName,\r\n            user[index].amount,\r\n            user[index].id\r\n        );\r\n    }\r\n\r\n    function modifyUser(\r\n        string memory _firstName,\r\n        string memory _lastName,\r\n        uint256 _age,\r\n        Gender _gender,\r\n        string memory _line1,\r\n        string memory _line2,\r\n        string memory _city,\r\n        string memory _state,\r\n        string memory _pincode\r\n    ) public {\r\n        //Update data\r\n        user[msg.sender].firstName = _firstName;\r\n        user[msg.sender].lastName = _lastName;\r\n        user[msg.sender].age = _age;\r\n        user[msg.sender].gender = _gender;\r\n        user[msg.sender].adr.line1 = _line1;\r\n        user[msg.sender].adr.line2 = _line2;\r\n        user[msg.sender].adr.city = _city;\r\n        user[msg.sender].adr.state = _state;\r\n        user[msg.sender].adr.pincode = _pincode;\r\n    }\r\n\r\n    function withdraw(uint256 amount) public {\r\n        require(amount <= user[msg.sender].amount, \"Insufficent Balance Bro!!\");\r\n        user[msg.sender].amount -= amount;\r\n        msg.sender.transfer(amount);\r\n    }\r\n\r\n    function depositSelf(uint256 amount) public payable {\r\n        require(msg.value == amount, \"Invalid Request\");\r\n        user[msg.sender].amount += amount;\r\n    }\r\n\r\n    function depositToOther(address payable to, uint256 amount) public payable {\r\n        require(msg.value == amount, \"Invalid Request\");\r\n        to.transfer(msg.value);\r\n    }\r\n\r\n    function getBalance() public view returns (uint256) {\r\n        return user[msg.sender].amount;\r\n    }\r\n}\r\n",
  "sourcePath": "E:/guest house/Code Box/BlockChain/acmg 2/contracts/Users.sol",
  "compiler": {
    "name": "solc",
    "version": "0.5.0+commit.1d4f565a.Emscripten.clang"
  },
  "schemaVersion": "3.0.1",
  "updatedAt": "2020-06-30T10:31:25.506Z",
  "devdoc": {
    "methods": {}
  },
  "userdoc": {
    "methods": {}
  }
}